:020000040000FA
:10100000F763FFFF0000447445454545000401FFB8
:1010100050420020B5AC0000C5D70000C5D7000085
:10102000C5D70000C5D70000C5D70000C5D7000050
:10103000C5D70000C5D70000C5D70000C5D7000040
:10104000C5D70000C5D7000085DD00002DE9F04FB1
:101050000820ADF17C0DDFF8FCB2ADF840000120B6
:10106000ADF84200DBF80000014610A88847C84CE4
:101070009DF8440060700026A6701298E0614FF65B
:10108000FF70A0820AF030FEB046C64D2070324696
:1010900033460120CDF800802946019004F1A800D4
:1010A000159008F099FB0220CDF8008032463346B7
:1010B0002946019004F1CC00149008F08DFB042027
:1010C000CDF80080324633462946019004F1F00005
:1010D000139008F081FB04F14809042010223146E6
:1010E000E070484606F074FA04F1580A102250469F
:1010F000314606F06DFA04F120073E6004F10B055D
:101100002E700720A072102126724A4666720220B5
:101110000AF006FE0320102152460AF001FE0420C8
:101120003A4601460AF0FCFDCDF8609004F13E001D
:101130001E90CDF864A015981C974FF003091690E7
:1011400005F12D00159005F17C00179005F12100A7
:101150001A9005F15D001B9027351D9509E0A078D8
:10116000062818BF072804D16078A18A13220AF044
:1011700011F908200A21ADF838004FF0FF35ADF81D
:101180003A10DBF800700F950EA839468847002802
:1011900040F062813046082102900925ADF8281000
:1011A000DBF80070ADF82A500AA839468847DDF808
:1011B00030A00028CDF808A040F04E81BDF82C10DA
:1011C0006078102940F03A819DF82E10884240F056
:1011D000358155462A884FF6FF73A91C934200F0CB
:1011E000258151460F78A23F00F009812E3F40F043
:1011F00025818978B046002900F0D680891E00F04C
:10120000AB80491E01297DD9891E4CD0491E23D0AF
:10121000491E03D0083900F0E480E6E013980DF091
:1012200096FC02984778002F40F0DF80C188E18269
:10123000018921834089608314980DF08FF900287B
:1012400040F0D380A76A002F00F0CF803B68E08A8F
:10125000218B628B9847F1E0A8880BF01CFD159854
:101260004146062206F0B4F9E68226836683A87911
:10127000607314980DF06BFC13980DF068FC4FF040
:1012800001084FF6FF706779A0824FB9A879082846
:1012900014BF04200520A07040460CF0D1FEA4E04D
:1012A00084F80290A1E06F7837BB291D0A68159871
:1012B0000260898881800627A7706889A082E889F2
:1012C000E082288A2083688A94F83E106083E87858
:1012D0000129207308D11F200AF03EF84FF47A71DB
:1012E000414314980AF090FCE8786A892D1D042384
:1012F000294608F043FE7BE0687831286FD12671DB
:10130000042023E06F78002F69D1A878678AA1783C
:10131000032812D02079657927B9012814BF667196
:10132000267106E0054304D0169839460AF06CFC95
:10133000A1780729E4D1062008E0062908D02779FA
:10134000002F08BF84F8029052D00220A0704FE016
:101350000720FBE79C1C00206B786F1C002B3ED104
:10136000ED78A178E279ADB9022918D0072916D015
:10137000062902D16079012811D103290FD01698CE
:101380000DF0ECF858B901200CF05AFE07E0C04609
:1013900020050020179B414609F032FA38703F784B
:1013A000EFB922E041E000006F78C7B9189A022037
:1013B00010210AF0D1FC199A484610210AF0CCFC01
:1013C000ED1C29681A98AF8801600125878029469D
:1013D000A2791B9B6078A57009F012FA40B1082031
:1013E000B4E7A88805210DF0DBF9B8F1010F25D18C
:1013F000676A1FB33F680FB3A078B8471EE06879EB
:1014000013281BD12889012808D1A07B022805D1E7
:1014100013980DF09CFB0CF0D5F80FE0052009F0B7
:101420009BFF014613980AF0EFFB07E00888C00B0A
:1014300004D31C9A042001460AF08EFC029FDBF8BC
:1014400000004FB10821ADF82010ADF82290CDF882
:1014500024A0014608A88847208A67792179420894
:101460002DD320F0010057EA0105208227D02E4815
:1014700000786FB9227A617A8DF80C201D9F8DF863
:101480000D103B680DF10E052B60BA88AA8001E0B3
:101490008DF80C90E17A8DF81510A27A8DF8142051
:1014A00003A90DF077F948B10820676AA0702FB141
:1014B0003D681DB13868014608208847208A8108A8
:1014C00007D320F002001E992082304606F07AFBF6
:1014D000208AC108FFF44DAE20F00400A77B2082D3
:1014E0007F1E03D07F1E3FF43AAE42E6A078B4F8E8
:1014F0004050B4F84230B4F84420B4F846100628FE
:101500007FF437AEADF81850ADF81A30ADF81C20A6
:101510001498ADF81E100DF01AFB01200DF1160104
:1015200006F050FB25E6C046210500202DE9F04FCE
:10153000ADF1740D07F032FBDA4C04F1200004F138
:10154000640105F059F9D849E0600DF05FF94FF0FA
:1015500008080127DFF854B3ADF86080DBF800001D
:10156000ADF86270014618A888479DF86400607065
:101570001A98A06004F12C000DF0C1F800264FF07D
:10158000040A04F180054FF47A72D649206133468B
:1015900000962846CDF804A008F01EF91F20394611
:1015A0000AF0D2FC4FF44870ADF818008DF82070A6
:1015B000B146ADF81E908DF81C9008AAADF81A80BF
:1015C0003946ADF816906420ADF8140040F20530AD
:1015D00000F06AFD40F2063002210DF11E0200F01B
:1015E00063FD4FF442701B2104F1460200F05CFDE4
:1015F00040F207300E2104F1380200F055FD1B9532
:101600004FF44470394607AA00F04EFD40F2113005
:1016100002210DF11A0200F047FD40F212300221C2
:1016200006AA00F041FD40F2133002210DF116022E
:1016300000F03AFD4FF44570022105AA00F034FD98
:10164000C44D3046152105F147020CF031FE06204D
:10165000A0210AF079FC0720A0210AF075FC404681
:10166000A0210AF071FC0920A0210AF06DFCCDF840
:10167000109003268DF80F7038468DF80E90514665
:101680008DF80D6004AA8DF80C004FF481600AF00B
:101690006BF94FF4806039460DF10F020AF064F9DE
:1016A00040F2024039460DF10E020AF05DF940F2B7
:1016B000034039460DF10D020AF056F940F206409A
:1016C000394603AA0AF050F94FF0FF300DF0DEF969
:1016D0004FF0FF300DF0D7F90CF0E0FD05F11102ED
:1016E0003846112102F060FA022005212A4602F054
:1016F0005BFA05202A46014602F056FA05F134024B
:101700003046132102F050FA6A1D50460C2102F0B7
:101710004BFA2235062012212A4602F045FA0AF039
:101720007FFD7F2004F0ECFAA0707F2814BF0A2010
:101730000F20052108F0EAFE09F02EFD0BF072F8EB
:101740000BF058F807F08AFA08F006FF0BF082F861
:101750000BF0C8FF0CF044FC0BF090FB04F11400FC
:101760000AF0D8FB04F118000BF0ABFA4E49E06820
:101770000DF04CF84FF0050A5D460A21ADF85A10FD
:101780004FF0FF37ADF8588028681797014616A824
:101790008847002840F0228148462F680290092699
:1017A000ADF848803946ADF84A6012A88847149EC3
:1017B0000028029640F00481BDF84C0010280CD19E
:1017C00060789DF84E10884207D130460178B029E4
:1017D00003D1017908300CF0FBF80298002800F0E2
:1017E000EF800321ADF84210ADF8408028681196D3
:1017F000014610A88847E3E020690BF0A3FF071C0F
:1018000000F0DE803E78781C761E3ED0761E40F0DA
:10181000CE800078B97806280ADC062821D0401E40
:101820002FD0401E29D0801E23D0401E1DD0BEE0E8
:10183000C01F12D0801E0CD0C01E06D0401E40F02B
:10184000B68008460CF0A4F9B1E0084603F06CFF3E
:10185000ADE0084608F068FBA9E0084604F0F4F99A
:10186000A5E0084605F036FBA1E0084605F0B4FD0A
:101870009DE0084603F0F8FE99E0084605F0ECF814
:1018800095E0084605F0ACFB91E00678701E63D049
:10189000401E29D0801E012849D9801E08D0801EF4
:1018A0002DD083E004090020F9DF00009C1C0020FB
:1018B0001B980CF053FE10B91B980DF046F9E06828
:1018C0000A214A460AF014F9E0680F214A460AF054
:1018D0000FF9E06815214A460AF00AF906F066FB9E
:1018E00064E0C04665E300001B980CF037FE10B9B9
:1018F0001B980DF02AF948460CF08AFB56E00BF0D5
:1019000069FD0BF043FD0BF05BFC0BF0A1FA0AF054
:101910005FF90BF029FD09F0ABF906F0DFF80CF0E8
:1019200047FBE0680A2101220AF0E2F83EE00BF0F2
:1019300051FD0BF02BFD0BF043FC0BF089FA0AF084
:1019400047F90BF011FD09F093F906F0C7F80CF018
:101950002FFB2BE0ECEC00000F20514608F0D6FDE9
:101960004FF441700EA901F0EBFF9DF839308DF86E
:1019700031308DF834908DF833909DF83D108DF80E
:1019800037109DF83A208DF832209DF83C309DF8B4
:1019900038008DF836309DF83B308DF830004146E8
:1019A0000CAA48468DF8353002F0FEF82670ADF8E6
:1019B0002880ADF82AA028680B9701460AA8884716
:1019C00020690CF0C6FE00283FF416AF04F0DCFDE1
:1019D0000BF0EEFC02F000FA0CF0B0FCA088C1089D
:1019E0000FD320F004002178A080022909D11B9890
:1019F0000DF0ABF82078022803D10F20012108F068
:101A000085FD07F05BF9B8E6D74A2DE9F04F0126CE
:101A1000ADF1140D02F141010490D148C1F8CF6F2E
:101A20000768002FFCD0D148C02344380360CD4B59
:101A3000029003F108000068800804D25868000C86
:101A400040F0F00000E07220D94FDA4C01930025FD
:101A500087F84C02A4F1DC081846C1F8FF5FD0F803
:101A60000CA058F8040CC0F304600CF041FE00EB2D
:101A70002A70401C162805DA10F10A0FB8BF6FF063
:101A8000090000E0152000F01F0040F4F850A7F80E
:101A900064021068800828BF4AF0406AC6494FEACD
:101AA000DA604FEA9A6580F0010000F001000860FA
:101AB00085F0010000F001008860504606F0F0FD5E
:101AC0000022044615460CF095FE00B935462A461C
:101AD000BA4D2B68002BFCD0DFF8E49209F108091D
:101AE000C9F810402E600AB10CF08AFE0CF0ACF977
:101AF00080B20090B24840F2FF3200232C2108F05F
:101B0000C7FE0CF0C3FC04460CF074FE4FF0000B53
:101B100000B9B3462B68002BFCD0C9F81440BBF1C8
:101B2000000F2E6001D00CF06BFE0BF05FFF04463F
:101B30000CF060FE4FF0000B00B9B3462B68002B91
:101B4000FCD0C9F80C40BBF1000F2E6001D00CF0A6
:101B500057FE0CF055F904460CF04CFE4FF0000B0C
:101B600000B9B3462B68002BFCD0C9F80840BBF184
:101B7000000F2E6001D00CF043FE049806F0AAF985
:101B800004460CF037FE4FF0000B00B9B3462B684B
:101B9000002BFCD0C9F80440BBF1000F2E6001D02F
:101BA0000CF02EFE049908460CF012F9844C40000B
:101BB000403440F0200084F8090108460CF014F984
:101BC00040F0100084F8090108460BF00BFD03906B
:101BD0000CF010FE4FF0000B00B9B3462B68002B41
:101BE000FCD00398C9F82000BBF1000F2E6001D093
:101BF0000CF006FE049908460CF00EF9400040F087
:101C0000600084F80C0108460CF012F9C00040F0A6
:101C1000800084F8010108460CF022F9800040F4AD
:101C20007C40A4F89C0108460BF07AFB03900CF072
:101C3000E1FD4FF0000B00B9B3462B68002BFCD040
:101C40000398C9F80000BBF1000F2E6001D00CF022
:101C5000D7FD4FF480002060D8F8580040F20F21E3
:101C60006FF31F40814215D9D8F80000D8F8003032
:101C7000C0F30365C3F3034005B16D1E072805D00B
:101C800006280EBF0720801C00F00F0045EA001058
:101C900007F8080CCAF38140401E02D0401E28D02D
:101CA00024E0D8F8D000810C20D24FF4804121608C
:101CB000D7F80210420AC0F3033502F0800221F087
:101CC0008F010A4345EA0201C7F80210D7F8012044
:101CD000031263F30302C7F80120396800F0E70537
:101CE00021F0E70145EA0100386002E04FF00040D2
:101CF00020604FF4007020640CF0C0FB40F0300016
:101D0000334F84F8C800CAF3815088B3401E03D013
:101D1000401E20D002211FE030460BF0BBFE0546DE
:101D20000420294608F0A6FB04200BF0B3FE8542F0
:101D3000FAD10198056825F07F400AF0A3FD3846E6
:101D400014300068036807214FF06022280E98477E
:101D50004FF4806020600321042008F08BFB0EE02C
:101D600094022243A83F00500000094044600C4008
:101D70000420314608F07EFB12480AF083FDD8F8B3
:101D8000B0001149114B47F6180500F03F0084F8E8
:101D9000CB0F3A460D8018681068C168022088474A
:101DA000402102980B4C016005B02660BDE8F08F21
:101DB0000A600840981300500000204300800C4047
:101DC00000A00C40BD37860070B00C402C200940AC
:101DD000A0010010940460422DE9FF47A24C0F4679
:101DE0000546F80B80F01E81B80880F0A380B80F7C
:101DF00063D2E07A002848D1380948D3002501266B
:101E000065706079667208B19848057098492161DB
:101E100098492A4604F14C000CF07AFEA07901287A
:101E20001AD1E079C0B9944E306870B10CF04AFA1A
:101E300061693368401A000BE061226A8018B0EBD8
:101E4000C31F28BF256208D2206204F1CC004FF0E6
:101E500000510CF085F92DE0A67104F1380040F630
:101E60000901018094F8451001F0F00141F00101F1
:101E700084F84510658794F8441001F0F00184F867
:101E80004410E5637D4E306014E0380910D2B80B81
:101E9000C0F0E180A66A46B1706830B17568F0683C
:101EA000B6F9101078A20CCAA84727F40057D2E060
:101EB0000020E07227F00807CDE0714904F14C00E2
:101EC00000220CF025FEE86840F6C411814216D1CC
:101ED00004200BF0DFFD90B1606980B1A06970B99A
:101EE0000CF0F0F96169A061814226BF401A401EE2
:101EF000401A000BE860E86800F58D70E860E07952
:101F000058B10220ADF8000068460BF0BBFB002082
:101F1000E071BDF80860A4F89C6001206070207931
:101F20000026401C2071192026720CF057FB27F068
:101F3000005790E004F1300ADAF80060002E69D012
:101F4000B06840F603031A4606F10C0C2025521C1B
:101F500002E040686D1EEDB268B165B101888B4248
:101F600018BF8A42F5D1DCF800102CC818312CC1FA
:101F700029C881E829000025326A35627368DBB11F
:101F800096F8243042F002024FF0000990465B1EA2
:101F900007D05B1E03D09B1E06D13DA002E03EA0F1
:101FA00000E03FA090E800037268F068B6F91010F6
:101FB0004B4694464246E047B4F93600401C6FF366
:101FC0001F30E08650460BF0C3FFF068B0F98C106C
:101FD000B4F9362091421DD1217801291AD090F808
:101FE0008E3093B9036883B1E1680968B1F1FF3FAE
:101FF00010D0244909686830B3FBF1F10CF0C9FD39
:10200000F06868300CF035F904E080F88E5028460E
:1020100007F00EFCDAF8000027F0020708B147F0DD
:10202000020718E00CF046FCE66A356A0CF06DFD1C
:10203000A8080ED26EB1306AA8433062706840B111
:102040007168F068B6F9106000232A468C46314664
:10205000E04727F4804727B104F1CC0039460CF063
:102060007FF80090BDE8FF87D0140020026208408E
:102070003188000041D40000CC2D00200010044025
:10208000E53E0000D0F60000000000002000000047
:1020900000000000000000100000000000000040F0
:1020A00000000000000000202DE9F8430C46034624
:1020B0001546DFF894C2A24EDFF888E2A4499F4893
:1020C000A24A0027A3F20138B8F11A0F1CD8DFE8A2
:1020D00018F0290125011F011B00FC00F700E0009A
:1020E000CF00C800C100B900B100AA001B001B004E
:1020F000A000930085007A006D001B001B001B00F0
:102100001B0051001B002600282B06DA022C04D1EC
:102110002988184609F018FFD0E002270BE1012CAE
:1021200040F00281C178012900F0F080027929781D
:10213000017182B9002900F0FE804078012800F08A
:10214000D680042800F0D380062800F0D08005282F
:1021500000F0CD80EFE02978002940F0EC80417854
:10216000032900F0CF80072900F0CC80052940F03A
:10217000E280C7E0012C40F0D7802878012840F0A9
:10218000D38006F1F0000CF0E9F968B9344638461E
:1021900004F13E0105F016FD071C40F0CC8004F16F
:1021A000CC000CF0D4FCC6E01627C4E0022C40F0B2
:1021B000BB8029880A29C0F2B780B1F5486F00F3C7
:1021C000B380704616E0022C40F0AE802988B1F54D
:1021D000FA7F80F2A98070460180ACE0022C40F0CA
:1021E000A38029880629C0F29F80B1F5486F00F3CB
:1021F0009B806046801CEFE7022C40F09580298888
:102200000629C0F29180B1F5486F00F38D806046D9
:10221000E2E7012C40F088802878022880F2848050
:1022200002F10C010CE0012C7ED1287804287BDA25
:102230000B3105E0012C77D12878082874DA0A31AF
:10224000087078E0062C6FD1296810460160AE88CE
:10225000868070E0012C67D12878042864DA09317F
:10226000EEE7012C60D1287804285DDC0831E7E72F
:10227000202C59DA06F1870839461F22404605F01E
:10228000A7F929462246404604F01AFAF471394665
:102290000FE0202C48DA06F1680839461F22404634
:1022A00005F096F929462246404604F009FAB47131
:1022B000012170782246434608F0A2FA07463AE028
:1022C000022C31D12988113086E7012C2CD10179DB
:1022D00001291BD0C2782978C17062B900292AD09F
:1022E0004078012803D0042818BF052823D10120F5
:1022F0000BF0A6FE1FE02978E9B94178022918BF42
:10230000052918D100780CF0A1F814E0122712E08A
:10231000042C09D129681F3001600CE0102C03D176
:10232000573004E0102C01D0182704E0473029462C
:10233000102204F0C5F93846BDE8F88321050020D5
:1023400020050020640500206005002052050020C3
:10235000200500202DE9F04F0128ADF1140D40F0CB
:10236000F280DFF81492D9F8DC00012840F0E9800F
:102370000220C9F8DC000CF071F90290012008F08D
:10238000F3FA20B101210646C9F8DC10D5E00CF0C3
:102390004DF903906E484FF00008C0F8008001200E
:1023A0000BF078FB012818BFCDF8008004D140461F
:1023B00007F06CFC0120009066486E4CC0F800806D
:1023C0001934D4F8FF0F11200CF02CFA00280CBFA0
:1023D0004646012610200CF025FA08B146F0020608
:1023E0000F200CF01FFA08B146F004060B200CF089
:1023F00019FA30B1584800685849006B02460888FD
:1024000090470A200CF00EFA0028404618BF012021
:102410004FF0805B0BF5DC7528B128685049006BE4
:102420000246088890474F4801270760286880695E
:10243000014646F0200088474B4807600CF0ECF955
:1024400000F001010191400815D248480CF03BF919
:102450008246BAF1040FF8D0BAF1010F06D1DBF8C9
:10246000D801406802464148032190474049086826
:1024700020F003000860404600F080F82868D4F897
:10248000FF1F806B8047019801280ED0BAF1010F21
:1024900006D1DBF8D80140680246344839469047F7
:1024A0003349086840F0030008602A48076028683C
:1024B00040690146304688470B200CF0B3F928B13B
:1024C00028682649C06A0246088890470A200CF00E
:1024D000A9F928B128682249C06A024608889047AD
:1024E000204807600322C9F8DC201F4BC3F8008096
:1024F0002868406B0146304688470128F8D10420FF
:1025000008F032FA124807601A48D4F8FF1F016831
:102510008909FCD30098012802D1384607F0B6FBA0
:102520000CF06EF9082008F01FFA06460398C9F867
:10253000DC7009F045FF06F031FF02980AF0A4FEB6
:1025400002E0042600E00126304605B0BDE8F08F29
:102550000C40094000022243B80100101EEE0000AA
:102560001AEE000028200860800104430040034068
:1025700024220840141009406C1B00202DE9F84F5C
:1025800082467A48DFF8D89135380068800880F0B4
:10259000D7800AF04DFD054678480830D0F8008015
:1025A00000244FEA2876761C5FEA98500AD2C5F1DB
:1025B0003E0015F10A0F4FEAE000D8BF082086421E
:1025C000B8BF061C634FD7F87C01C0F304600CF061
:1025D0008FF883463868C0F304400CF089F806EBA6
:1025E0000B020090162A05DA12F10A0FB8BF6FF03D
:1025F000090200E01522584B584F02F01F0141F428
:10260000F8511980396811F0030F18BF0124C90867
:1026100028BF44F00204BAF1000F18BF44F00404CC
:10262000494691F90730EB1A052B04DA8B79A3425E
:1026300008BF888863D0DFF82CE10F2DA5F10F03C8
:1026400025DB03EB03134FEA232CBCF1070F88BFF4
:102650004FF0070C6746062F88BF06275EF8270055
:10266000042606EB87067746BE59361A06F0FF07A2
:10267000E00824BFC6F307200744A00824BFC6F320
:1026800007400744600828BF07EB166701E00027F2
:10269000BC465EF82CE0E0080EF0FF0624BFCEF347
:1026A00007200644A00824BFCEF307400644600874
:1026B00028BF06EB1E660098A3EB0C23BFB25F4356
:1026C0008037801A06EB1726D8BF0120342208F085
:1026D000FF0742437A43B2FBF6F04FF6FF728242A5
:1026E00038BF101C802D80B2888005DA15F1800F6C
:1026F000B8BF6FF07F0500E07F25CD718C711A4A5D
:1027000012681F280A604FF0000208D340F2FF1140
:10271000814206D24008521C8142FBD301E01F20B7
:102720008880134F11490F38000942EAC00247EA76
:102730000200C1F8FB0F0026C1F8FF6FBDE8F88F5B
:102740000D4F0C4E494608203760891D0870BDE8C2
:10275000F88FC0463C1100506E62084024220840A9
:10276000243600209C130050082009403500094001
:1027700000E7A48030100940FDFDA400AC3F0050EC
:102780002DE9F0411C4615468C4208BF854282BFA8
:1027900000230022E5E0002C08BF002D0AD100290B
:1027A0000EBF00286FF000006FF0000100F0E1F8AC
:1027B000BDE8F0815FF000085FF0000E002C08BF5C
:1027C0008D429CBF2C1C0025070C47EA01470E0CCC
:1027D000B44208BFBD429EBF5FEA044444EA1544C8
:1027E0005FEA0545070A47EA01670E0AB44208BFD7
:1027F000BD429EBF5FEA042444EA15645FEA0525F2
:10280000470847EAC1774E08B44208BFBD4200F20C
:102810009380870847EA81778E08B44208BFBD429B
:102820007CD8C70847EA4177CE08B44208BFBD420A
:1028300066D8070947EA01770E09B44208BFBD42CE
:1028400050D8470947EAC1674E09B44208BFBD42A4
:102850003AD8870947EA81678E09B44208BFBD426A
:1028600024D8C70947EA4167CE09B44208BFBD4230
:102870000DD8E60146EA5566EF01B14208BFB842FD
:1028800001D3C01BB14158EB08085EEB0E0EA60148
:1028900046EA95664FEA8517B14208BFB84201D3B0
:1028A000C01BB14158EB08084EEB0E0E660146EA1C
:1028B000D5666F01B14208BFB84201D3C01BB14118
:1028C00058EB08084EEB0E0E260146EA15762F014E
:1028D000B14208BFB84201D3C01BB14158EB080850
:1028E0005EEB0E0EE60046EA5576EF00B14208BFF9
:1028F000B84201D3C01BB14158EB08084EEB0E0E95
:10290000A60046EA9576AF00B14208BFB84201D3AF
:10291000C01BB14158EB08084EEB0E0E660046EAAC
:10292000D5766F00B14208BFB84201D3C01BB14198
:1029300058EB08085EEB0E0EA14208BFA84201D377
:10294000401BA14158EB08085EEB0E0EA34208BFE6
:10295000AA423EBF2D0A45EA0465240A89D373467C
:1029600042461E4617460B46024631463846BDE8EB
:10297000F08170472DE9FE4F724C04F12406306857
:1029800015460F4600900BF095FF01903846B0F1C8
:10299000FF3F05F001070CD1A06A20B9B4F9360059
:1029A000401C00B202E0A06AB0F91000002184F8D7
:1029B000A510A16A821000EB527222F00702801A61
:1029C000C20002EB4012A01800F59C78414500F0CF
:1029D00083800098804549D000284FF003073FD0FE
:1029E0004FF0000904F1A80BCA46006880451ED1CB
:1029F00058460AF037FF00980768C0F800A0019811
:102A000000970CF082F8A8080ED297F8240040F046
:102A1000040087F8240068460BF09AFA014606F194
:102A20000C0009F0E3FB01E04FF001098327B9F145
:102A3000010F03D00098006800900EE0009991F813
:102A4000240040F0040081F8240068460BF080FA6E
:102A5000014606F10C0009F0C9FB00980028C4D11A
:102A6000832F24D001980CF050F820E004F1A80046
:102A70000AF0F8FEA8083ABF606A006800206062A9
:102A800001980CF042F80C36009991F8240040F0BF
:102A9000040081F8240068460BF05AFA01463046DB
:102AA00009F0A4FB009808B1A808EDD28327207A8A
:102AB00060B9254904F1CC00216102210BF050FBE3
:102AC000607801281CBF2148206138E004F1CC0067
:102AD00002210BF045FB32E0A80803D3606A0090A6
:102AE0000023636298F824100120B840084388F856
:102AF00024000BF09BFD0446002F14BF144815481A
:102B00000AF0C0FD01980CF000F8A80813D3009853
:102B100088B10C36014691F8240040F0040081F899
:102B2000240068460BF014FA0146304609F05EFBBB
:102B300000980028EED1204609F042FC8327384651
:102B4000BDE8FE8FD0140020D91D0000D15F000029
:102B500001000204010001042DE9F04F8346ADF1AC
:102B6000840D01F0ADF807F027FE4FF000090128B1
:102B700005D10BF021F9022808BF4FF00109604987
:102B80000868C0F38150012806D151F80C1C0120BF
:102B9000090E884040EA09095A495B485B4D0978AB
:102BA0000068C0F34600286007F006FE2C460128A6
:102BB00007D10BF001F9022803D12068401C2060E6
:102BC00000E0206838B1FF2204F1400107467F1E73
:102BD00001F8012BFBD1DBF80010002601F0FF0209
:102BE000FE2A1BD08C46DE46324601270CF0FF0140
:102BF000884204D907FA01F319EA030F01D0022031
:102C00007AE00CF0FF015EF804CF61181E4381F8F2
:102C10004020521C0CF0FF01FE29E9D1092002F0EE
:102C20006FF8C4F804B001A80021242208230BF097
:102C300077FE4FF0010804F1240001AA8DF81C80F2
:102C4000414609F00FFF23682BB300279435BA469D
:102C500008FA07F019EA000F17D1064204BF07F07F
:102C6000FF0141F4C04104D0E01990F840005BF846
:102C70002010274802F030FFF8B24FF0FF310AF081
:102C800025FF2368C5F800A001E0042028607F1C10
:102C90002D1D9F42DCD30AA80021302208230BF00F
:102CA00003FE1C4E3078002510210AAB12901A4A00
:102CB000009504F1080008F0C5FD16A82822082395
:102CC00029460BF033FE716804F1600016AA1C91CE
:102CD00012491D952B4609F0AFF8114A52F80D0C18
:102CE000414620F4F85040F4005042F80D0C0D4BD2
:102CF000C2F8FF1F2846196021B0BDE8F08FC0461A
:102D0000B43F00502D36002080120840883100204A
:102D1000007FC76760F60000E9DA0000E9AB000059
:102D20000D300940080009402DE9F84381460BF0B9
:102D300061FD002100B901216B4E30680028FCD0F4
:102D40006C4D01242D1DEF6A346009B10BF058FD64
:102D5000DFF89881C7F3072008F1BC0108600BF089
:102D600049FD002100B9214630680028FCD02F68B9
:102D7000346009B10BF044FDC7F38440C8F8C000CB
:102D80000BF038FD0146002001B9204601463068AD
:102D90000028FCD0ED69346009B10BF031FDC5F3BA
:102DA0008120C8F8D000B9F5C061C8F8B81000F0AB
:102DB000968098F8D80068B9C8F8D410D8F8C00040
:102DC000C8F8C800D8F8BC70C8F8C470D8F8D0608B
:102DD000C8F8CC60D8F8D410D8F8BC60002954BF2B
:102DE00002206FF00100454605F1C8031A6801EBA7
:102DF00041014018411000EB917002EBA0021A60F3
:102E0000D5F8C810C5F8C46000291CDD1E293DDDB9
:102E1000D5F8CC0030B93429B4BF15391E21C5F816
:102E2000C81025E02A29BABFD5F8C8000B381E20E3
:102E3000C5F8C800D5F8C4003F28B4BF401C3F20E7
:102E4000C5F8C4001FE0D5F8CC00032812D011F15A
:102E50000B0FC6BFD5F8C8000B30201CC5F8C80042
:102E6000D5F8C4000028CCBF401E0020C5F8C4001F
:102E7000032009E011F1150FC6BFD5F8C8001530C1
:102E8000201CC5F8C8000020C5F8CC00B5F8C40067
:102E9000174E30214FF47F4208230090304607F050
:102EA000F7FC009404214FF400321123304607F060
:102EB000EFFCB5F8C80004214FF4F802122300908B
:102EC000304607F0E5FCB5F8CC0020214FF4406215
:102ED0000A230090304607F0DBFCBDE8F8830020B1
:102EE00088F8D800BDE8F88300800C406C1B0020F7
:102EF00000A00C4000A00C402DE9FC471E46924665
:102F00000D4681460BF0D6FC5D4C0AAF40F6F871D9
:102F1000B4F93630B4F934200095D21A114008299A
:102F200002DB0BF0F2FD41E0B4F93410491C6FF301
:102F30001F31A186B4F934800BF0E7FD40468110C3
:102F400000EB517121F00701401AC10001EB401163
:102F5000651809F168000AF085FC05F59C7585F88F
:102F600012A00098A8606E60C5F80C90A5F81080BB
:102F700097E80C0046A696E8030005F1180700261E
:102F80001040194087E8030004F1240085F824600C
:102F90000768002F58D1294609F028F948B9B4F933
:102FA000340000F6FF706FF31F30A0866FF0010849
:102FB00063E0A9F88C800BF07DFC89F88E60A17A23
:102FC00041B1617831B10121E172A672E6712179D6
:102FD000491C21710BF099FDA06A00284DD1607841
:102FE00070BB207A012848D00BF064FC0646607A5A
:102FF000F8B9A86807F022FB234A2249E36812685F
:10300000086040B930460BF080FD04F1CC0004218B
:103010000BF0A6F831E0D8680968091A04F1A80095
:10302000B1FBF2F10BF0B5FD04F1A8000BF021F9B2
:1030300020E030460BF069FD1449012008701CE0C7
:1030400019200BF0CBFA18E00BF034FC06462946A9
:1030500004F1240009F0CAF8002818BFA9F88C80F0
:1030600008D1B4F934006FF0010800F6FF706FF377
:103070001F30A08630460BF048FD4046BDE8FC8777
:10308000D0140020CC2D0020D0F600002C360020DB
:10309000F1EFFF9F200000002DE9F04F0D46624C3C
:1030A0006A782978ADF1140D01EB0221ADF800101A
:1030B0006188BDF8002003908A4240F0A980E06951
:1030C00040F6FF7200EB0110024203D1000BC0B2C8
:1030D0000BF07AFCBDF80010A079AA1C102309019E
:1030E0000BF07CFC6088401C81B26180A088884223
:1030F00040F08A800DF102000BF008FABDF80200E2
:103100004FF6FF71814275D0BDF80270E088002F44
:1031100070D0A28800271101C6B201F47043049751
:103120005FFA92F2C91A82185FFA82FA1FFA81FBDB
:10313000B24528DBAAEB060101F10108B0420CBF41
:1031400004250025B245D8BFAB4516DD30462946DB
:103150000DF1060204230BF03CFC04270DF10609D7
:1031600019F8011B049809F03AFD7F1E0490F7D16D
:103170002D1DADB2B5F5805FE4DBE088761CB8F1BB
:103180000108F6B2DAD10498002109F028FD0021E7
:1031900009F025FDBDF80210ADF80400814229D1E7
:1031A0000DF102000BF0BAF9BDF80400BDF80210F1
:1031B00088421FD10398002105F060FC0AF01CF939
:1031C00021780843207009F093F8A17A491EC8B20B
:1031D000A17298B92078410806D3A069039900220A
:1031E000034603209847207810F0060F06D00BF016
:1031F0009DF903E00398012105F040FC00252570AE
:103200000BF06AF865800CE0039805F007FC08E015
:103210000020608020700BF05FF80398032105F018
:103220002DFC05B0BDE8F08F2C1900202DE9F84FDA
:103230000D4683462868DBF80440DBF80880002848
:1032400000F0AF800BF036FBD4F8881021B10BF002
:103250005CFC03202874A4E001212974C4F8885080
:103260000BF053FC94F8A40038B194F88D204E492B
:10327000D4F89C00114308F085FF6F680BF01AFB2F
:1032800004F1D8068146307850B917F0704F02D15A
:10329000042009F037FA022009F034FA01203070D6
:1032A00048460BF032FCD8F80090D9F8040040F002
:1032B0000200C9F80400DBF80830DBF804C0D5F8D8
:1032C00000E019689CF88C201FFA8EF0B1F1804F55
:1032D00000FA02F01FFA80FA14BF344E344E35481B
:1032E000AA6832B99CF88C108F00C2590CF1A60163
:1032F00008E09CF88C108F000AEB0201C21952F80A
:10330000082C491EB2607160196801F10808C6F8FE
:103310000080B2684FEA0E1143F6F07E10390EEAD3
:1033200001010A43B2601E68B6F1804F14BF224A01
:10333000224A6D68002D04BFC05903F10E0504D068
:10334000C01950F8100C55446D1E90601560C2F8FD
:103350000480906801439160DCF8A0005F694268D6
:103360001969126847EA01009062706A40F0030030
:103370007062D9F8140040F00100C9F814002078F8
:1033800028B961686C34204601F0F2FD10B10120CB
:10339000BDE8F88F584601F027F92046002101F0DA
:1033A000E7FD0020BDE8F88F000006800005002042
:1033B000300400207CED00001005002040040020B7
:1033C0002DE9FC415D4C564D564EDFF85C81594F5E
:1033D00094F8E410481E0B2800F29F80DFE800F00C
:1033E000772C43062343062343067260042907D043
:1033F00001220A2945F8212C14BF0220032004E0F1
:103400002021012045F8211C024684F8E20000201A
:1034100045F8390C0827C5F8FF7FC5F8F37F45F854
:10342000392CBDE8FC81052914BF092006200025A0
:1034300084F8E40035606CE094F8E1700120383DD8
:10344000002FC5F81B0004BF0620002102D0002178
:10345000F160032084F8E400032045F8010C31609A
:103460003068800855D294F8E400012503280DD077
:103470000021404660220523009107F009FA94F8E4
:10348000E400062814BF0A200720D1E7022000909C
:10349000002160220523404607F0FAF90420C7E71F
:1034A0002249002622480E60012505600E2001F009
:1034B00053FB022009F00EF984F8E45084F8E3602D
:1034C000BDE8FC81002038600C2578601FE01A48B8
:1034D000006800680146202088472C3D41F61D56B3
:1034E0000F2000214FF4C072072345F8010C40461D
:1034F000C5F803600225009507F0CAF9404600218F
:103500004FF4C072072307F047FD0120386084F8AC
:10351000E45004F178000AF0ACFEBDE8FC81C0463E
:1035200039400C4038600C4000A00C402C500C403E
:1035300004800C4034600C40A00100106C1B002083
:10354000B0B5456884685148297BADF1180D012953
:103550001AD001462F7E227E637E4D4837F0010748
:1035600041EA020240EA030001904A48009218BF73
:10357000011CA27E1143029195F88D200323FF2A9E
:1035800013D0014610460DE0A17E627E237E41F0FD
:103590000041024343F00043029195F88D000093EF
:1035A0003D490192014304230391FE2105F190005E
:1035B0004DF82310694603F01FF9C5F89C00002858
:1035C00008BF00205FD0287B344951F82000012833
:1035D0002BD02068B0F1804F14BF22220A22217E16
:1035E000D5F89C0009F0C6FB2068B0F1804F14BFED
:1035F00021220922617ED5F89C0009F0BBFB2068DE
:10360000B0F1804F14BF24220C22A17ED5F89C007B
:1036100009F0B0FB95F88D10FF2933D02068B0F188
:10362000804F14BF23220B2228E02068B0F1804F86
:1036300014BF21220922217ED5F89C0009F09AFBB3
:103640002068B0F1804F14BF22220A22617ED5F893
:103650009C0009F08FFB2068B0F1804F14BF24223A
:103660000C22A17ED5F89C0009F084FB2068B0F103
:10367000804F14BF23220B2295F88D10D5F89C00A3
:1036800009F078FB012006B0B0BDC046000480A060
:10369000004000800004C0A00020008064ED000015
:1036A0002DE9F04F04466668A7680D46ADF1440D5C
:1036B0000BF000F996F8DC10012903D10BF025FA84
:1036C00000208AE04FF0010B86F8DCB00BF01DFA09
:1036D000E868D4F8048028B9A06890F814A090F89D
:1036E000159003E090F800A090F80190BAF1FF0F58
:1036F000E6D0B9F1FF0FE3D0394941EA0A000D9055
:10370000FE220F9241EA090108F198000E910DA9DD
:1037100003F072F8C8F8A400D8F8A4000028CFD0AD
:1037200051460D2209F026FBD8F8A40049460E2286
:1037300009F020FB2878307068687060287A0021D2
:1037400030220823F06001A80BF0AEF806943A7B13
:10375000099200250095234AB96806F1100001ABD3
:1037600008F070F801A82822082329460BF0DEF89B
:10377000396907911C49059406F12C0001AA2B46D2
:1037800008F05AFB01A82422082329460BF0C8F8A8
:1037900006F160008DF81CB0594601AA09F062F9E3
:1037A000307838B906F17C00294601AA09F05AF9A7
:1037B0000E4870603572C6F8BC50C6F8C0507868C4
:1037C00001F09EFA204607F03FF8094A06F1C800CA
:1037D0000421234609F090FC204611B0BDE8F08F8B
:1037E00000200084F54400001F9600000FEA00004E
:1037F0008DE500002DE9F04306467768B5680C4674
:10380000ADF1340D0BF056F897F8D9102D1D0129A4
:1038100003D10BF07AF9002084E04FF0010887F81B
:10382000D9800BF072F94FF00009C7F88890206931
:10383000386160697861207E3876207B3873207823
:103840003870606887F8A4907860606949460928F4
:1038500028BF414687F88C10287A01F051FA30468B
:1038600005F08EFFE87D87F88D003046FFF768FE93
:1038700050B9287A01F070F90BF01CF887F8D9904C
:103880000BF043F94E464CE001A84946302208238C
:103890000BF00AF806966878CDF80090234A099054
:1038A000297801AB07F11C0007F0CCFF01A8282202
:1038B000082349460BF03AF80596696807911C49B8
:1038C00007F1380001AA4B4608F0B6FA387878B903
:1038D00001A84946242208230BF022F807F16C00C6
:1038E0008DF81C80494601AA09F0BCF8114800E097
:1038F000A068B86004F090FB397BC7F8A0000129EC
:1039000008D1D7F89C000C490AF080FFD7F89C003A
:1039100000B18660094A07F1C4000421334609F06A
:10392000EBFB30460DB0BDE8F083C0462D610000D2
:103930003D9B00001FEA000029BB000091E8000049
:103940004C4B2DE9F04F0C46283BD97AADF12C0DAC
:1039500086460591587B0A90997A04919878099047
:103960009A7993F80C9093F805A0597A588B0391A3
:10397000B3F846800890197A188B02915E8A0790F6
:10398000D979D88A0191DF7806901979988A0091BF
:10399000196AAEF5407C0025BCF11D0F10D8DFE898
:1039A0000CF0635C59575553514E4A474543403ECE
:1039B0003C0F3835322F2D272422200F1D1B1A18BB
:1039C000BEF1280FA8BF02254FDA704607F0C4FCED
:1039D00023E0DDF82890CA46CDF824A00998059088
:1039E0001DE00898079007980690DDF8188005E01C
:1039F0003833186820609888A08036E040460AE096
:103A0000B3F8440009E0B3F8420004E0B3F8400022
:103A100001E093F83E00064614E0208025E005987A
:103A200004900498039001E03233E2E70398029097
:103A30000298009008E0019A03F1870110E003F179
:103A400068010DE03046E8E7009F0DE02C33D0E739
:103A500021600AE003F1580101E003F1480110225E
:103A6000204602F02DFE00E0277028460BB0BDE88E
:103A7000F08FC046480500202DE9FF410646880F1B
:103A8000C0F08280454C464D41484FF00008611D12
:103A90001C350F78C5F8008045F81C0C27B13D484F
:103AA00080F80080202181703E4A94F84470C4461A
:103AB00040F60A0104F13800226194F84530A4F878
:103AC0003AC007F0F007018003F0F003C4F83CC0EF
:103AD000B26884F8447043F0010384F84530171D40
:103AE000A2F802C000E01F1D3B6813B11A88914282
:103AF000F9D138607A7A02F0F0027A72626A9268DA
:103B00001288C91F91421ED0491C91421BD006F158
:103B100018010B88CBB196F8243096F82520C6F80A
:103B20001CC003F0F00302F0F00286F8243042F0EB
:103B3000010286F82520E163417BA6F81AC001F056
:103B4000F001417301E0C4F81480B068694609F0DF
:103B5000A9FD68460AF0D2FCB06801F084FD28682F
:103B60000028FCD0C5F80080012009F093FF01284F
:103B700007D0787A00F0F00040F001007872064B30
:103B80002361B06845F81C0C0090BDE8FF81C04679
:103B900001010E0400620840FDA10000D0140020C5
:103BA00000100440D91D00002DE9F0470C46904656
:103BB000DFF8F890414D3F4F3D493F4AD9F800307A
:103BC00008284FF00006ADF1180D69D8DFE800F0C5
:103BD0005F5B4C4844403A1105C0072C59D1404620
:103BE000828805F108018A8087798F7100680860F2
:103BF00057E003940420ADF80A004FF0080AADF82E
:103C000008A002A89847D8B904980746C0B16968C7
:103C100005F1170088420BD005214846ADF8021087
:103C20006A68ADF800A000680192014668468847BE
:103C300038464146224602F043FD6F602C7030E06A
:103C400013262EE0142C24DC01F11505294601E091
:103C5000142C1EDC0D460BE0142C1ADC3D4606E04D
:103C6000142C16DC3D4603E0142C12DC15461535E9
:103C700028463146152203F0ABFC28464146224631
:103C800002F01EFD0DE0142C03DC1546DEE7082CC7
:103C900001D0182605E0404642686A394A60A5E727
:103CA0000226304606B0BDE8F087C0469C1C0020C6
:103CB000CD170020A31700207917002054170020EB
:103CC0002DE9F041434C94F8E700ADF1280D0028B0
:103CD0006CD1384F387B01250021242284F8E7502D
:103CE000082384F8E60001A80AF002FE002604F189
:103CF0000C00069601ABADF814602F4907963246CA
:103D000008F02AFB2D4904F1300001AB324608F0DF
:103D100023FB2B4904F1540001AB324608F01CFB95
:103D2000B868014628468847DFF89C8025487B7B99
:103D30000078D8F80410C1F381571BB1032F03D1C9
:103D400084F8E150032F16D0022F14D0012F26D172
:103D500003201E4C009031464FF040521C23204659
:103D600006F096FD009531464FF400720923204677
:103D700006F08EFD13E0022008F0C4FC032F0CBFF8
:103D80004FF47A7142F21071114800685434B1FB5B
:103D9000F0F120460AF0FDFE20460AF06AFAD8F853
:103DA0000000C00802D2304608F0ACFC0AB0BDE802
:103DB000F081C046FCF20000576A0000A56C0000CC
:103DC000557400002D360020B03F005000A00C407C
:103DD000D0F600006C1B00202DE9F0413E4F3878F2
:103DE000002876D03D4C208910F07F0F00F07F082E
:103DF0006DD007F045FD3A4E21783578A0700DB9A9
:103E000002293AD12279C30917D2400824D304F1F8
:103E1000140007F0EBFB04F11A0007F0ABFBE578A8
:103E2000E088002D08BF217816D00021E1702178AC
:103E30004FF47A7292FBF0F009E0521CD0B20228E3
:103E4000207109D1E0884FF47A72B2FBF0F002B22F
:103E5000500000EBC200E0600025022935700CD153
:103E60002089C00909D304F1200000F049FA05288F
:103E700022D008B105F036FA2178E66816B9012992
:103E80001BD124E0022904F1140509D0022020707E
:103E90000026267100F0CAFE10B1404600F098FFDF
:103EA0002089000A02D3E068401EE0600020122151
:103EB0002A4603F09FFD0AE0E560002020710126FC
:103EC000267000F0B3FE10B1607800F0D7FD00203E
:103ED0003870BDE8F081C04631360020B82300209C
:103EE0002F360020F8B50AF003F83F4E3D4F044648
:103EF000A00823D3B96A09B33D4600208B690A6A3A
:103F0000A86204EA0300104340F0020006F1080230
:103F100008628B6910689843106001F1180090E8FE
:103F20000C0030681A1C9043306005F1300008F036
:103F30005DF9022105F1CC000AF012F9B86AA10876
:103F400016D200F118020CCA002122400B40002BAF
:103F500008BF002A0CD08269016A1440F86207F198
:103F6000CC020C4304624FF4804110460AF0F8F88A
:103F7000B86A002834D107F12404256885B3F868AD
:103F8000E968884226D1A86806F058FB17490860FE
:103F9000E0B906F10801A8690A68104308603268B0
:103FA00005F1180393E80300081C10433060002358
:103FB0003361A86846F80C0C06F110000068002870
:103FC000FAD0204609F0C4FFBD62F8BD086805F0CC
:103FD0002FFCF8BD07F1CC004FF480510AF0C0F877
:103FE000F8BDC046D01400200C100440CC2D002099
:103FF0002DE9F0430646ADF11C0D0AF0A9FC08F0CE
:1040000009FB4FF000090546CDF808900AF046FC80
:1040100030F0010002D00298A84202D16FF00400F3
:1040200068E070684C4658B1B0F1FF3F05D001A977
:1040300008F0D8FA30B107465BE04FF0FF3000E0FF
:104040002046019009F0FEFB0199012701EB0008D1
:1040500002E013463DE001936868019900F088FF93
:1040600000282FD003A805F0EAFCE0B99DF8100065
:10407000694607F0EBFF90B9B268BDF800009DF803
:1040800012101346059A984748B1BDF800009DF8F4
:104090001210B081059BB1734F46336112E0059950
:1040A00002A807F0B9FF0198641CB0F1FF3FD3D01C
:1040B0000028D1D009F0C6FBB8EB000302D001986C
:1040C0009842C8D2029E09F0ADFC05F1080146B144
:1040D000334653F80C2C002ABBD10A6843F80C2C49
:1040E0000E600AF084F824B1686804F005FC641ED0
:1040F000FAD1384607B0BDE8F08370472DE9F043A8
:10410000ADF1140D01F08CFC041C6AD04FF480203A
:1041100010216A4605F0B6FE041C5AD00098334EB2
:10412000410F01D0864200D2002431480199324D1E
:10413000884204D828465638884202D248E0080B04
:1041400046D1002C45D02B4810216A4605F09AFE36
:10415000041C3ED00098410F01D0864200D20024BA
:104160000199080B34D02846884231D38CB3234CB4
:10417000002604F110093546C84605F580204FF4A5
:1041800080714A4605F07EFE4FF4807718F8011BD7
:10419000304608F03BFD7F1E0646F7D105F58075D9
:1041A000A8F58078680CE8D03046002108F02EFD94
:1041B000002108F02BFD0546224610214FF4F42083
:1041C00005F060FE20880024A84208BF012406E014
:1041D00000244FF4F4204FF4805104F0BFFB04F0AE
:1041E00087FE204605B0BDE8F083C04600500020A1
:1041F00001F0010010100400FFFF010098320020C0
:10420000F0B5ADF1340DFFF75BFD344908682822A5
:10421000082340F00200086001A800210AF086FB94
:104220002F4FB978354C07912E49002301AA04F18C
:10423000CC0007F001FE00213022082301A80AF07B
:1042400033FB387800261921ADF81C60264A099006
:1042500001AB009604F14C0007F0F4FA2822082381
:1042600001A831460AF062FBF97807911F4901AABB
:10427000334604F5807007F0DFFD3022082301A8E3
:1042800031460AF011FB787801251A21ADF81C504F
:10429000174A099001AB009604F1680007F0D2FAC2
:1042A0001449324604F1A800134608F055F81248A4
:1042B000206106F081FA3146012808BF291CE5710A
:1042C00084F8A560A67126726672A672E6724FF631
:1042D000FF7061710DB0A4F89C00F0BD0020094092
:1042E00018F30000E5DB000041D40000E9570000AE
:1042F000E19C0000ADDB0000D15F0000D014002085
:10430000FEB53D4C05460621601C01700AF00CF814
:1043100018B90AF099FA0020FEBD00260120682194
:10432000667002F09FFE2220694601228DF800008F
:10433000372008F02FFA08B9052060700AF084FAD7
:104340006078002818BF301C54D101200C2102F0E5
:1043500089FE02206946012209F05FFF00283CD057
:104360009DF80000400836D303200DF1010107221B
:1043700009F053FF68B39DF80700000927D29DF8A4
:1043800002709DF801009DF804609DF803109DF8EF
:1043900006309DF8052040EA072041EA062142EA5E
:1043A000032200B2288009B2698012B2AA80B4F94F
:1043B0000830584300122880B4F90A00414308121B
:1043C0006880B4F90C0042431012A88007E0032073
:1043D00004E0042002E0022000E0012060701120CF
:1043E0008DF80000694601220A2008F0D3F90AF08E
:1043F0002BFA6078FEBDC046DC2400202DE9F84F82
:1044000000298346009106DD024600980021401EE7
:1044100042F8041BFBD10098DFF8C880DFF8CC908D
:104420000028C8F800B012DD2F48009C076800255E
:1044300037F8020B38B1D9F80000AE00315800202F
:1044400088474BF80600641E05F10105F0D1284F9E
:1044500041460120D7F80080C880B8F1000F22DD66
:104460004FF0000A00980127002817DDABF1040582
:104470000446002655F8040FB0F1FF3F04D0D9F8E8
:1044800000107158884728600021B0F1FF3F08BF35
:104490000121361D641E01EA0707EBD137B90AF185
:1044A000010AC245DEDB04A009F044FC0D490020EE
:1044B0000860BDE8F88FC0467864632E72756E742C
:1044C000696D652E537461727475703A20276D6141
:1044D00078506173736573272065786365656465DB
:1044E0006400C046501B002020F7000024F70000A5
:1044F0001CF7000098B53A4982684468096810685A
:1045000049688847374B01229A6160B1217AFF29B7
:1045100009D0FF21400921725CD2042018600220DA
:104520000AF0BDFA56E0207A002853D0401E1DD074
:10453000401E02D0FD3851D049E05968D4F8B4008B
:104540000170D4F8B800D4F8B410401E491CC4F867
:10455000B800D4F8B870C4F8B41017B3012F88BFEE
:10456000092202201A600AF09AFA98BDD4F8B00025
:10457000401EC4F8B000D4F8B070A7B9D4F8B87031
:104580007FB10220D4F8A8102072097C012F4FEAD5
:10459000410141F0010143F8041C94BF03220B22A6
:1045A000E0E7042210E0D4F8AC0000785860D4F8BA
:1045B000AC00022F00F10100C4F8AC00D1D2D4F855
:1045C000B870002FCDD1052200202072C9E7FF204E
:1045D000207298BD04F12C0006F016FC98BDC04670
:1045E000AC010010042800402DE9F047064674682D
:1045F000B5680AF05FF9D4F88810002964D00AF091
:1046000084FA2968486820F0020048602968486AEE
:1046100020F003004862D4F8A0006F6941682A695D
:10462000096847EA0200C1F804052968486920F0D2
:104630000100486128684FF00108C0F8208030462A
:1046400008F06EFDD4F88800D0F804900AF032F932
:1046500004F1D8078246387850B119F0704F02D172
:10466000042008F037F8022008F034F800203870F1
:1046700050460AF04AFAD4F88810087C042803D07F
:1046800003200874D4F88810D4F8A00043682A697D
:1046900068691B68474610438740DF622868B0F1AD
:1046A000804F14BF0A480B48026808689204A0EBC8
:1046B0009250401E0860A06800230246C4F888306B
:1046C00030469047BDE8F0870AF01FFABDE8F08752
:1046D0000805002038040020F8B53A4BC578047965
:1046E00044EA05242501B3F90270447990F800C02A
:1046F00045EA24151C88EE10A6EB4406C4EB2514ED
:1047000064432513B3F9044077436C43A41304EBCB
:10471000E724877804EB840580352E12457845EA36
:104720000C20B3F90A500E60000140EA271E601009
:10473000A0F57A40811049434C136C43B3F90850FB
:1047400045436D1005EBE4054FF4004404EBA5442C
:10475000DD886543EF1331D09C46BCF90E40BCF9AF
:104760001030BCF90C50164EC91260434B4340F652
:104770003544290403EB400301EBA30104FB1E6550
:10478000081304FB1050C10F19BFB0FBF7F0400035
:104790004000B0FBF7F0BCF91410BCF91650BCF99E
:1047A0001240C30886085B4371435B0B49136B439C
:1047B00001EB2331641800EB24101060F8BDC046F3
:1047C000000050C3E8350020F8B5374C0646A07805
:1047D000002867D0B4F93600B4F93410884206D006
:1047E000B6F98C1031A20CCA304601F0D1F90AF0AA
:1047F00061F8E178002946D0491EC9B20029E1706C
:1048000041D10AF082F90025A5706078B0B10AF0B4
:1048100051F80746207940B1401EC0B2207120B93E
:1048200004F1CC00082109F09BFC38460AF06DF930
:1048300006F130004FF0FF3100F09AFB06F1300036
:104840000AF0B1F906F168000AF09BF904F1CC0016
:104850000AF0ABF904F14C000AF085F904F5807018
:104860000AF0A3F904F168000AF07DF904F1A80048
:104870000AF087F92570E560307C012812D10E20FE
:1048800000F06AF9F8BD0AF040F9E068864204BF1A
:104890000020E06006F130000AF085F906F16800BA
:1048A0000AF06FF9F8BDC046D014002002000000E5
:1048B000000000702DE9FE430AAF3C8806460D4615
:1048C00099469046284602A908F072FB01464B46DD
:1048D00042460129304608BF012058D0BDF80810D3
:1048E000DFF8B08042F60216FF27891B4FF0000662
:1048F0003AD048F2FF20091A26D0491E11D0491E8D
:1049000030D1002C2CD1022B28D11078062819DAAE
:10491000E86811880180E96844468C422BD102275F
:104920002BE0ECB9062B19DA107810280ADCE868BD
:1049300011464A4601F0C4FE1748E96888421AD178
:1049400001271AE0802616E054B9102B06DCE8682F
:1049500011464A4601F0B4FE37460EE00D260AE045
:104960000B2608E00A2606E0009401210191294661
:1049700005F03AF80646FF2F08D04046001D0068B3
:1049800020B1006810B10146384688473046BDE87E
:10499000FE83C0468C2000209420002032482DE960
:1049A000F04F08214FF00108ADF11C0DADF81010CB
:1049B0000068ADF81280014604A888472B4C069980
:1049C00061609DF8140020704FF0FF3104F10C007D
:1049D00001F09EFC2648274D066827484FF47A7759
:1049E000B5FBF6F9B0FBF6FA38E0404608F0C0FB3C
:1049F000484603F0C9F902A806F080FD834600206E
:104A000008F0B6FBBBF1000F1CD002A801A96A4652
:104A1000FFF762FE9DF805308DF809309DF80420FF
:104A20008DF808209DF806008DF80A009DF8021008
:104A30008DF80D109DF801308DF80C309DF8002098
:104A40008DF80B200020062102AA03F00DFA6088E1
:104A50007843401BB0FBF6F003F096F9607801282C
:104A6000C3D05046F8E7C0469C1C0020B40C002080
:104A7000D0F600008038010040420F00F8B506462D
:104A800009F052FC00284FD00120682102F0EAFA18
:104A900000284BD02F4D09202C1D012220702146CB
:104AA0006B2007F077FE00283ED0072028712146B2
:104AB00001226C2007F06EFE002835D001271D2052
:104AC00021462F713A4607F065FE00282CD0402081
:104AD000287121463A46382007F05CFE20B3C020FA
:104AE000287121463A46692007F054FEE0B12E7144
:104AF0001F2021463A4607F04DFEA8B10620287136
:104B000021463A461E2007F045FE68B1292028714B
:104B100021463A466B2007F03DFE28B1E91C1C20D7
:104B20003A4607F037FE18B909F08EFE0020F8BDAE
:104B30003A2021463A4609F070FB09F085FE002133
:104B400029706869024907F01DFB3846F8BDC04668
:104B500007000680DC2400202DE9F843044609F014
:104B6000A9FE81462D48021992F8ED10491ECFB2D8
:104B7000002F82F8ED704BD12B4D05EB84052E787C
:104B8000698836F07F0788461AD1F10911D24FF0B3
:104B90008054D4F8B801806901464046884704F53E
:104BA000DC742068406B0146404688470228F8D1F3
:104BB00021E000EB8800D0F80011002088471AE0BF
:104BC0004FF08054D4F8B801006A01464046884747
:104BD000D4F8B801806A014640468847D4F8B80145
:104BE000006B01464046884701210D4A0D4811607F
:104BF00001688908FCD306F03F003F2801D0FFF789
:104C0000ABFF687800F03F003F2801D0FFF7A4FF1A
:104C1000484609F07AFFBDE8F883C0466C1B0020C7
:104C20002820086028200840F0ED0000F8B5334D3A
:104C30002F49686907F0A6FAFF20A87000242C709D
:104C400068216C70012002F00DFA002808BF271CB3
:104C50004CD02C4680200122211D20716B2007F0B2
:104C600099FD09F0F1FD234923480D68B0FBF5F0EB
:104C700003F08AF804F064FB261D071C36D00220DE
:104C800005F01EFC09F050FB60B306F057F858B36E
:104C900001200C2102F0E6F930B30F2030703146CC
:104CA00001220A2007F076FD42F21070B0FBF5F009
:104CB00003F06AF804F10E011020032209F0ADFAA6
:104CC00004F10E0140B108788030208148788030AE
:104CD000608188788030A08101220B2031462271CA
:104CE00007F058FD09F0B0FD06F096FA3846F8BD19
:104CF00007000080D0F60000A0860100DC24002020
:104D00002DE9F041064609F0D5FD2D4D8046A91943
:104D100091F8ED00421C002881F8ED204AD1294C81
:104D200004EB8604277807F03F003F2801D0FFF707
:104D3000E7FF607800F03F003F2801D0FFF7E0FF79
:104D4000668837F07F001AD1F80911D24FF08054ED
:104D5000D4F8B801406901463046884704F5DC7450
:104D60002068406B0146304688470128F8D121E091
:104D700005EB8605D5F80011012088471AE04FF0B1
:104D80008054D4F8B801C069014630468847D4F849
:104D9000B801406A014630468847D4F8B801C06A75
:104DA0000146304688470121074A084811600168DA
:104DB0008908FCD3404609F0A8FEBDE8F081C04652
:104DC0006C1B0020F0ED000028200860282008401F
:104DD000BCB5074609F0A8FA00285BD02F4C207814
:104DE00040BB3FB309F0A0FA10B30120682102F0E4
:104DF00039F9F8B10920211D207101226B2007F03B
:104E0000C9FC251DA0B13F202870294601226C2035
:104E100007F0C0FC0021217050B1E11C1C200122D0
:104E200007F0B8FC20B13A202946012209F0F5F933
:104E300009F00AFDF8B2277048B30120682102F09A
:104E400011F948B32078211D012280F0FF00207164
:104E50006C2007F09FFC09F0F7FC247809F064FA55
:104E6000C4F38014B0B105F069FFA8B101200C2192
:104E700002F0F8F880B1002C0CBF00201120694628
:104E800001228DF800000A2007F084FC02E006F001
:104E9000C3F9BCBD09F0D8FCBCBDC046DC24002071
:104EA0001EF0040F14BFEFF3098169468869EFF320
:104EB000118102B400B5DFF8A4E0F047DFF8A8E004
:104EC000DEF8001001EA0000CEF800005DF804EB07
:104ED0001EF0080F03D101BC80F31188704704BC99
:104EE0001EF0040F14BFEFF309816946A1F1200100
:104EF00014BF81F309888D461B4B1868086040F287
:104F0000011018604A604FF08070C86117488861CE
:104F1000704702B401B4EFF3148100291CBF0022D2
:104F200082F3148802B402B4DFF834E0F04701BC25
:104F300001BC00281CBF022181F3148801BCDFF8EA
:104F400024E0F04704484FF08051016001BC80F339
:104F5000118800BF00BFC04604ED00E0DD9D0000E9
:104F60006FEA000005EB000030250020134F000021
:104F70002DE9F0410D460646B5F1FF3FADF1380D84
:104F800009D045B12B496B4605A82A4608F068F9B7
:104F900005A9022001E0002103200391264F8DF88E
:104FA000100038682024EFF31188371884F3118833
:104FB000708980BB002D04BF88F31188002036D093
:104FC00009F04CFB064609F0C3FC0290C0F818D06B
:104FD00007F010FA3846694609F09CFC9DF810006D
:104FE0000025022802D1039803F08CFA88F3118877
:104FF000304608F049F9EFF3118384F311880398E0
:1050000010B109F0C2FD03950298856183F3118800
:105010009DF810000BE07089401E7081039818B154
:1050200009F0B3FD0020039088F3118801200EB031
:10503000BDE8F08159CF0000DCF600002DE9F04119
:1050400015460446A869A060686A98460E4608B9E5
:105050002A4800686062286A002806BF2848076856
:10506000071C09F033FCEB69A3B9002808BF391C01
:1050700003D03F1841427F1E39400246E161606A19
:10508000E169434602F0FEFF2062206AB8B90120C0
:10509000BDE8F081002804BF2362391C0BD01B1827
:1050A00041425B1E01EA030020623F1AE869C01911
:1050B000E061E0690140E1614FF0FF306062A662AB
:1050C0002869E06268692063A86A6063A88DA08788
:1050D000A08F012803D10B49C868401CC860204636
:1050E000414602F03FF80346404609F05DF80028CB
:1050F00014BFD81C0020BDE8F081C046F0F60000C7
:10510000F4F60000982400202DE9FF410AAF3F8803
:105110000C4605469846164602A9204607F048FF69
:105120000146434632460129284608BF012049D09E
:10513000BDF80860DFF8948042F60211FF25761A68
:105140002DD048F26310361A012E26D81FBB012B32
:105150001FD1BDF808104AF666200026884202D109
:105160001178032913DA1178E2681170BDF808107C
:10517000884205D0E1684046884217D1354617E09D
:10518000E1684046401C884210D1012510E080268D
:105190000CE00D260AE00B2608E00A2606E0009740
:1051A00001210191214604F01FFC0646FF2D08D085
:1051B0004046001D006820B1006810B10146284635
:1051C000884730460090BDE8FF81C0460C23002090
:1051D0002DE9FE430AAF3C8805460E4699469046A7
:1051E000304602A907F0E4FE4B4642462946012814
:1051F00008BF012049D0BDF80800DFF8948042F6CE
:105200000215FF27401B4FF000052AD048F23F113E
:10521000401A2ED0401E12D0801E20D1ECB9012B96
:1052200019D110780A2808DBF1680870F168444643
:10523000601C88421DD102271DE0802519E064B959
:10524000012B08D11078F1680870F16844468C424F
:105250000FD101270FE00D250BE00B2509E00A25F2
:1052600007E00094084601243146019404F0BCFB99
:105270000546FF2F08D04046001D006820B1006899
:1052800010B10146384688472846BDE8FE83C0462F
:10529000CC1E00202DE9FE430AAF3C8805460E4691
:1052A00099469046304602A907F082FE4B46424698
:1052B0002946012808BF012049D0BDF80800DFF8C1
:1052C000948042F60215FF27401B4FF000052AD0BC
:1052D00048F21F11401A2ED0401E12D0401E20D17D
:1052E000ECB9012B19D110780A2808DBF168087095
:1052F000F1684446601C88421DD102271DE08025CC
:1053000019E064B9012B08D11078F1680870F168D0
:1053100044468C420FD101270FE00D250BE00B25F1
:1053200009E00A2507E0009408460124314601946B
:1053300004F05AFB0546FF2F08D04046001D0068C8
:1053400020B1006810B10146384688472846BDE8BC
:10535000FE83C046641F00202DE9FE430AAF3C884F
:1053600005460E4699469046304602A907F020FEB3
:105370004B4642462946012808BF012049D0BDF8C6
:105380000800DFF8948042F60215FF27401B4FF01B
:1053900000052AD048F2FF01401A2ED0401E12D03C
:1053A000401E20D1ECB9012B19D110781E2808DB42
:1053B000F1680870F1684446601C88421DD10227DC
:1053C0001DE0802519E064B9012B08D11078F1683F
:1053D0000870F16844468C420FD101270FE00D257B
:1053E0000BE00B2509E00A2507E00094084601249C
:1053F0003146019404F0F8FA0546FF2F08D04046E4
:10540000001D006820B1006810B101463846884789
:105410002846BDE8FE83C046F81F00202DE9FE4364
:105420000AAF3C8805460E4699469046304602A98A
:1054300007F0BEFD4B4642462946012808BF012021
:1054400049D0BDF80800DFF8948042F60215FF2726
:10545000401B4FF000052AD048F27F11401A2ED091
:10546000401E11D0401E20D1ECB9012B19D110786B
:105470000A2807DBF1680870F16844468C421ED1A7
:1054800002271EE080251AE06CB9022B09D1F068D2
:1054900011880180F1684446601C88420FD10127C1
:1054A0000FE00D250BE00B2509E00A2507E000942D
:1054B000084601243146019404F096FA0546FF2F70
:1054C00008D04046001D006820B1006810B10146B8
:1054D000384688472846BDE8FE83C046881D002020
:1054E0002DE9FE430AAF3C8805460E469946904694
:1054F000304602A907F05CFD4B464246294601288A
:1055000008BF012049D0BDF80800DFF8948042F6BA
:105510000215FF27401B4FF000052AD048F26F11FB
:10552000401A2ED0401E12D0401E20D1ECB9012BC3
:1055300019D110780A2808DBF1680870F168444630
:10554000601C88421DD102271DE0802519E064B946
:10555000012B08D11078F1680870F16844468C423C
:105560000FD101270FE00D250BE00B2509E00A25DF
:1055700007E00094084601243146019404F034FA0F
:105580000546FF2F08D04046001D006820B1006886
:1055900010B10146384688472846BDE8FE83C0461C
:1055A000202100202DE9F8430D46064668687468FE
:1055B000D6F80890002710B9E868002850D0207865
:1055C000012814D109F076F9D4F8BC1049B1D4F807
:1055D000C0108D61C4F8C05009F097FA0120BDE8F1
:1055E000F883C4F8BC50C4F8C05009F08EFA022009
:1055F00007F088F804F160084FF0FF314046FFF7EC
:10560000B7FCD9F8080005F0BBFB3046294601F08D
:1056100091FB0546D9F8080005F0D4FB207888B93D
:10562000B5F1FF3F08D004F17C004FF0FF31FFF7E8
:105630009FFC207A48B110E003202072022007F07E
:1056400049F80AE0B5F1FF3F01D0012705E003204A
:10565000207204F12C0005F0D7FB404603F04CF912
:105660003846BDE8F88370471CB52D4C401E02D06B
:10567000401E44D01CBD09F0F9F8400931D32089FF
:10568000FF2831D00120694606F016FABDF8000067
:1056900010F07F0F18D0BDF800002081022002F02A
:1056A000C9FE08F041FEA8B11E48006841F28831E9
:1056B000B1FBF0F002F068FB05F07AFFBDF80010D6
:1056C00041EA0020208105E0BDF800002081002093
:1056D00002F0B0FE04F108020120022102F08AF972
:1056E00007E0FF20083420800120FF21022208F07B
:1056F00039F800201222014608F034F81CBD0220BF
:105700000DF1020106F0D8F99DF80200410001EB0D
:10571000C001E18004F1280004F08EFA1CBDC046EF
:10572000B8230020D0F6000030B52E4CADF1140D9A
:1057300028BB04F120050020294605F06DFC207EE1
:10574000012802D9401F14D04AE0012803D108F0F3
:10575000EBFD002844D0207E617E01F083FC002810
:105760003ED0207FA27E294607F014F809F06CF89D
:1057700036E0E069A27E294600F0A2FF30E0012871
:1057800021D002282CD1022002A905F045FC7E215F
:10579000E1619DF8095065769DF80800207605289E
:1057A00014BF02200420A076A07E04F11C058DF811
:1057B000080029680DF1090302AA012019600521DA
:1057C00005F0AEF80CE00120694605F025FC9DF8D7
:1057D00000100DF10100A176006804F11C0528609D
:1057E00005B030BD442500202DE9F04109F062F8F4
:1057F000DFF8A0800646D8F8A00010F4602F28D06B
:10580000400CC4B2600807D2A00803D2E00828BF49
:10581000022402E0012400E00024651D68B204F0C7
:10582000B3FAD8F8A01004F111020120904081438E
:105830003046C8F8A01009F068F908EB8400D0F8E9
:105840008C704FB1D8F8880013A20CCA2946B8470B
:1058500002E0304609F059F9D8F8A00020B108F567
:105860008070002108F07CFC98F8A50080080FD318
:10587000D8F8987037B1D8F8880009A20CCA6FF030
:105880000101B84798F8A50000F0FD0088F8A500D0
:10589000BDE8F081D01400200000000000000008E6
:1058A0000000000000000080F8B508F0A3FF08F039
:1058B000B3FF044604F00C000C2845D0E0081ED2CB
:1058C00007F01EFB234E376805460120014608F00D
:1058D00036F831686943884211D21F4C8220B0FBF0
:1058E000F7F0291A204609F054F9204608F0C1FCC7
:1058F0000120FCF72FFD204607F0B4FF25E020092A
:1059000022D21648610939BF016821F001010168FE
:1059100041F0010102460160D2F898004FF0805436
:1059200040F00300C2F89800D4F8B801806901463D
:1059300020208847D4F8B801094C806B2168804743
:1059400001202060206800E030BF08F059FF02F01D
:105950003DFDF8BDD0F60000781B00208C210840EA
:105960002C2009402DE9F0412A4D044628781F4695
:1059700090460E46ADF1300D012803D0FEF740FCF5
:10598000012028705EB1B8F1000F666007D0C4F83E
:10599000088008F08FFF697819B109F0B6F8002087
:1059A00034E0491CC9B2697009F0AFF8012527B984
:1059B0001A4807C86F4687E807003868206078688B
:1059C000E060397A782204F118002174002101F096
:1059D000FFFD03A800212422082308F0A1FF04F101
:1059E00030008DF82450002103AA07F03BF803A8EB
:1059F00000212422082308F07BFF04F168000649F7
:105A00000994002203AB06F0A7FC20460CB0BDE8C9
:105A1000F081C046D2140020A9CE00004CF6000050
:105A2000F8B52C4C04F1180004F1100100F0E4FE6C
:105A30000028606008BF002048D004F124063046EA
:105A400008F068FC002584F8245021486063314642
:105A500084F83050284606F06DFE2F46E06000B115
:105A60000127002831D0AB208DF8000008F086FD1A
:105A70006846012106F036FF2F4600B9012708F0DD
:105A800075FD1FB103F062FA00B12F46CFB105F0EA
:105A900043FA002808BF2F1C15D004F1440000E091
:105AA000083007683FB1017922789142F8D14179F5
:105AB00062789142F4D1A06000682C4600B10124C4
:105AC0002746012F01D003F013FA3846F8BDC0462F
:105AD00000093D0030220020F8B50D46EEB229083D
:105AE00024BF27494D40274BB400DFF89CC019590B
:105AF00000EA05020CEA020200F4E02C85EA010744
:105B0000BCF5E02F00EA070721EA0001C7F30067B0
:105B100042EA010201D1510E14D300F4E0210F43F7
:105B200010D002F4E027B7F5A02707D0B7F58037EB
:105B300004BF22F4003242F4A02203E022F48032B7
:105B400042F4C0221A51114CC10D04D3C5F3805246
:105B5000A4F1D0018A55000E10D308F0ABFE290E37
:105B600003D201220021B24002E00122B2401146DC
:105B7000236893431943216008F0C7FFF8BDC0466E
:105B8000006000A000100840007F077FD020024086
:105B90002DE9F843984617468946044608F046FD25
:105BA000274DB5F934604B4642463946F61A04D4BF
:105BB000B5F936609E4204DA0CE0B5F936609E42D3
:105BC00005DAB5F93660B5F93470BE4202DC06F08C
:105BD000F7FB31E09E1003EB567626F007069B1B81
:105BE000DE0006EB4316AD1905F59C752E1D96F8E3
:105BF0002030243513F0070F18D1124B3568AB4213
:105C000002D03568A565336004F1500383E80600CF
:105C100006F0D6FB04F130004FF0FF31FFF7A8F992
:105C200004F1600797E80300BDE8F88306F0C8FBBD
:105C3000287810F0070FFBD102200021BDE8F8837F
:105C4000D01400209DA2000070B52B4E2B4D0128D2
:105C500006D038BB31460020491C07F003FD21E087
:105C60003146012007F0FEFC34462078022811D08E
:105C7000621C0020012103F00DFF28680A21002288
:105C800005F036FF28680F21002205F031FF07F0EC
:105C9000ABFA07E008F0EAFD621C60700121002009
:105CA00003F0F8FE31460878012824D134462868EC
:105CB0006178490834BF002201220A2105F018FF4B
:105CC00028686178890834BF002201220F2105F07D
:105CD0000FFF61782868C90802D207F085FA05E04D
:105CE00005F01AFA4FF4FA6003F052FF60780009E9
:105CF00001D302F037FB70BD2427002010090020DB
:105D000038B52C4C054600206908207009D300F0F6
:105D100089FC002808BF207803D0207840F00100DB
:105D20002070A90809D302F055FC002808BF20788C
:105D300003D0207840F002002070290909D300F038
:105D40003FFE002808BF207803D0207840F00800EC
:105D50002070E90809D304F019FB002808BF207857
:105D600003D0207840F004002070690909D303F0C3
:105D7000E7FA002808BF207803D0207840F0100010
:105D80002070A90909D305F0A7F9002808BF2078D9
:105D900003D0207840F020002070E90909D308F0F2
:105DA00031FB002808BF207803D0207840F0400065
:105DB000207038BD303600202B482DE9F8430D46C1
:105DC0009C4608AF91466968BC883E884B7802784B
:105DD00009784FF0000842F6232701EB0321C91B85
:105DE000674628D0491E052917D9891F0CD02639A6
:105DF00033D1072E2ED8C6F10701A14298BF8CB22D
:105E00003618083631461FE0B24223DB921BA2420D
:105E1000D8BF94B23C8040680BE0E86808F0C0FA54
:105E200080B2B04216DB801BA042D8BF84B23C8057
:105E3000E868311809E0082E0CD8C6F10801A14223
:105E400098BF8CB231180F313C804846224600F092
:105E500037FC06E04FF0070803E040464FF00A0821
:105E600038804046BDE8F883541700202DE9FE4FE6
:105E700080460E463078994693460CAF022832D0C1
:105E8000DFF894A0254D7068DAF818401022303DF4
:105E9000294607F065FB002740B9002C38D08AF866
:105EA0000190012041465A46A04731E0706805F153
:105EB0001001102207F054FB10B94CB30220F1E797
:105EC000706805F12001102207F04AFBA0B9B9F172
:105ED000010F06D19BF80000002818BF8AF80A00BD
:105EE00016D1802714E070684278007842F60211DB
:105EF00000EB0220814201D00A2709E03988012005
:105F000000915A4601903146404603F06DFD074628
:105F10003846BDE8FE8FC0462C190020E0ED000099
:105F20002DE9F04F09AFADF11C0D924606903C886B
:105F30000493D7F80880059197F80490039430B142
:105F4000081C04D0181C18BFB8F1000F01D10220A2
:105F500038E01E4801780026354630E0069C04EB08
:105F60008504B4F800B04FF6FF70584523D0A778E9
:105F70000FB303990498059A07F01CFD0290D0B165
:105F800078080AD3CDF80090CDF80480029B012157
:105F90005846524601F09CFA0643A07880080AD37E
:105FA000CDF80090CDF804802088029B5246022153
:105FB00001F08EFA0643054801786D1CEDB2A94246
:105FC000CCDC304607B0BDE8F08FC046200500208D
:105FD000042998B545D1294C606A40B994F8A500C8
:105FE000400838BFE06804D3D4F8880000E0C068F7
:105FF000E060001D01681B4A0978116000681168A3
:10600000007888422CD1022006F07CFB1120FEF79C
:1060100077FE01202072E168087C091D10B1A0798B
:10602000012804D00E20FEF76BFEE168091D086808
:106030000D49083007680FB947681FB10020C861D3
:106040000A4F0F600A4A40F2FF700B4B10600027A6
:106050002361084A8F6119204A6104F0B3FE98BD9C
:10606000FEE798BDD021084000100440510007060B
:1060700000000460020000409D840000D014002055
:106080002DE9FF410AAF3C880546984616460F4663
:1060900002A9384606F08CFF4346324629460128BD
:1060A00008BF01203CD0BDF80800DFF87C8042F634
:1060B0000215FF26401B4FF000051ED04AF2C031EA
:1060C000401A09D0401E16D19CB9012B0FD110786F
:1060D000F968022608701AE05CB9082B07D111682C
:1060E000526840460E300160012642600FE00D25E7
:1060F0000BE00B2509E00A2507E00094084601247F
:106100003946019403F070FC0546FF2E07D0404647
:10611000006820B1006810B1014630468847284623
:106120000090BDE8FF81C046301E0020B0B501469A
:106130008B681C68E26948682262520824D2D0F851
:10614000A01049680A685D69D2F80415294206D092
:106150001C68616A21F002016162C2F80455D2F83C
:10616000042519690A4231D01A68516A21F00101E7
:106170005162D0F8A01049681A6909683830C1F82E
:10618000042504F041FEB0BD1C68626922F00102E2
:106190006261D0F88870B7B9626822F0020262606A
:1061A0001C68626A22F003026262D0F8A0005F6994
:1061B00044681A69236847EA0200C3F804050846E0
:1061C00006F0AEFFB0BD0846FEF70EFAB0BD704750
:1061D000F8B5446886680846203804F10C043AD0C3
:1061E000401E34D0401E2FD120781578012814BFCE
:1061F0001D491E49FF2D41EA050109D194F881107E
:10620000FF2903D0D4F8900003F06EFCFF2515E0C1
:10621000D4F8900002F0DAFA98B93068B0F1804F03
:1062200014BF23220B22D4F89000294606F0A2FDC9
:10623000D4F8900094F8811003F056FC84F8815053
:1062400010E04FF0FF30F8BD6FF00100F8BD002006
:1062500084F89800F8BD21780020012908BF0120AA
:1062600084F898000020F8BD0004C0A00020008041
:10627000F0B520480127F84201D004F02BFA204D58
:10628000204F214EBD4206D203CD0478A4003459DC
:10629000401CA047F6E71D48002800D08047164D57
:1062A000164FBD4202D210CDA047FAE7F0BD03253C
:1062B0001BE0416808300A1C2A400BD11A1C2A40F6
:1062C000AB4305D0046804300C600431043BF9D1C1
:1062D000131C05D0047801300C700131013BF9D159
:1062E000021C2A4001D0A84304300368002BE0D1EF
:1062F0007047C046FFFFFFFF0000000000000000E5
:106300000003010038030100C00201003DA30000AA
:106310002DE9F0470F46064608F0A0F9EFF3118982
:106320008246202080F31188D6F80880474533D074
:106330001D481E4B0468002F05D49C690125BD40F3
:1063400004EBC70401E0E4180025307D01281AD1D0
:10635000304608F005FA306C08F0FBF918B1F16826
:106360005868884358601869864204D020463146F0
:1063700008F0D0FA04E020685C61314608F00FFCB8
:10638000586828435860B760F5603464002F44BFF4
:10639000002058610120188189F31188504606F0C9
:1063A00073FF4046BDE8F087E4F600009824002023
:1063B0001B4838B50468B4F1FF3F08BF002407F05C
:1063C000DBFF0025174818490560012008601749C0
:1063D000086003F0C3FE1648006820B11548006845
:1063E0002046FBF711FB144814490560144C0A6859
:1063F0006FF35B4244EA0200086012490868C0F388
:106400000130012806D10A680F48104040F40032DC
:106410000A6008600D4908680028FCD138BDC046F4
:106420001C130050840460425C600C40082204434A
:1064300080012843000120438C210840482003406C
:106440000000390104000940FFFFFCFC0C00684219
:10645000F0B50446234DA7682868ADF12C0D67BB45
:106460000C2000F07BFD071C1ED068460021242272
:10647000082308F03DFA002306976A466168ADF8E4
:1064800010301948059305F0BBFC386078B9082135
:106490000C22ADF82410286AADF82620014609A880
:1064A0008847384606F03AFC6FF0030018E0E068D1
:1064B00078602069B860A7600AE0804706463868BF
:1064C00007F0D0F92069B86068680146304688470F
:1064D0003868616808F05DFB386807F0CAFE002084
:1064E0000BB0F0BD7C1C0020B5E900002DE9F8439D
:1064F000244C0646E06890460D46B04218BF032083
:106500003AD103F017FC071C35D408F0D3F98146C3
:106510001A4807F00F0145EA012525F00301084359
:10652000C4F8840007F0AEF800F0FF0001281AD18B
:10653000680B0FD384F8A470114B94F8A550186819
:1065400007F10C020121914045F0040584F8A550A3
:1065500088431860C4F8886004EB8700C0F878802E
:106560000126267004E0384603F00EFC6FF00107A8
:10657000484608F0CAFA3846BDE8F8830100030629
:1065800008100440D0140020B0B5254C60784108B4
:1065900009D320F0010060700A20014603F0B6FF25
:1065A00004F0DAFD60781D4D810807D320F0020069
:1065B00029786070062901D103F066F92078A17866
:1065C000884228D000200121224604F045FD287889
:1065D000022802D1207807F01BFDA7782078B9089F
:1065E00008D3810806D22978062903D003F04CF994
:1065F000A778207810F0030F0DD067B904F10805D3
:10660000284607F0ABFF28B9284608F09EFA00207C
:10661000E080A0802078A070B0BDC04604090020B2
:106620000426002010B50020442100F01BFD0028A6
:1066300008BF002440D0214C1F200222214607F031
:10664000ECFD002835D021880806000C40EA212006
:10665000782815D11020208021460220024606F01D
:1066600099F830B302202146024607F0D6FD00B368
:1066700021880806000C40EA2120B0F5805F01D097
:10668000208016E00020208021460220024606F0ED
:1066900081F870B102202146024607F0BEFD40B1EC
:1066A00021880806000C50EA2120208008BF012420
:1066B00000D0002408F0C8F8204610BD1C36002089
:1066C000002A4AD05FEA000C8B071CD1830722D135
:1066D000102A08D370B4103A78C978C0103AFBD2A7
:1066E00070BC103238D0042A2CD3082A05D30C2AC7
:1066F00024BF08C908C008C908C008C908C0920753
:106700002AD0920F22E00B780370491C401C521EC5
:1067100022D08B07F7D1C30714D18307D8D0121F1B
:1067200012D308C903801B0C4380001D121FF8D22E
:106730000AE008C903701B0A43701B0A83701B0A16
:10674000C370001D121FF4D2121D05D00B78037008
:10675000491C401C521EF9D1604670472DE9FF4785
:10676000204808214FF00109ADF804100068ADF889
:106770000690014601A888471B4D039969609DF862
:10678000080028704FF0FF3105F10C00FFF7C0FD45
:106790001648174E174F04684FF47A78B6FBF4FA90
:1067A0001AE0484604F018FD504601F0EDFA0DF1EC
:1067B0000200694600F082FF002004F00DFD002079
:1067C00004216A4601F0FEFC688808FB00F0801B8B
:1067D000B0FBF4F001F0D8FA68780128E1D0B7FBFB
:1067E000F4F0F7E79C1C00201C120020D0F60000FB
:1067F0003832040040420F002DE9F843234E0F4683
:1068000004464FF0FF3106F124052846FEF7B0FBA1
:10681000A94600200CE0FF2909D032688A4204D939
:1068200006EB8101D1F894500DB1002425E0401C05
:106830001FB117F82010FE29EDD1002020604FF085
:10684000010860600546A06011E0FF290ED01078B5
:10685000636808FA00F0184306EB810360600A4998
:106860001268C3F89440204605F072FC6D1C27B1F5
:1068700007EB85021178FE29E7D1484602F03CF883
:106880002046BDE8F883C046007FC76788310020F6
:10689000B0B5244C2178E0888A0832BF0020401C23
:1068A00080B24908E08017D3A188491C8FB2062F17
:1068B000A78013DB062811DB04F10805284607F042
:1068C0004DFE60B3284608F042F90020A080E08029
:1068D000607840F001001DE00027A78003280ADA55
:1068E00038431CD10834204607F038FEB8B12046A2
:1068F00008F02DF9B0BD97B904F10805284607F056
:106900002DFE60B1284608F022F90020E080607872
:1069100040F0020002496070086801F0EDFFB0BD70
:106920000C090020042600202DE9F8432020EFF375
:10693000118780F31188214CA068012108F01BF910
:106940004FF001094FF0000865692168A4F81C9018
:106950006A1A2168A4F81E80461B401A904227D369
:1069600087F3118840464519361A4846294600F0F3
:106970001DFFB042F7D92021EFF3118781F3118871
:10698000E18B012903D14046294600F00FFFB0F109
:10699000FF3F06D0A169801B814238BF081C411906
:1069A00001E0A069291807F063F9A4F82090256098
:1069B000A4F81C8087F31188BDE8F8835C260020CA
:1069C0001CB50020772100F04DFB002808BF0024F3
:1069D0003FD0D0206946012207F01FFC002835D0A7
:1069E0009DF80000582831D1F5206946012207F0B2
:1069F00014FC00282AD09DF8000038BB55208DF8E3
:106A0000000069460122F42005F0C4FEF0B1F42034
:106A10006946012207F001FCC0B19DF8000055282D
:106A200014D1B6208DF8000069460122E02005F05F
:106A3000B1FE58B1F4206946012207F0EEFB28B1FF
:106A40009DF80000002808BF012400D0002407F0B2
:106A5000FBFE20461CBD70471CB5234C401E02D0D7
:106A6000401E31D01CBD07F001FFC00824D32078A0
:106A7000FF2823D00120694605F014FE9DF8001080
:106A8000207869B9A0B104F1080008F060F800208E
:106A900006F08EF800200222014607F0F5FA07E022
:106AA00030B9012006F084F804F1080008F04DF830
:106AB0009DF8000020701CBDFF2020700120FF21E8
:106AC000024607F0E1FA1CBD0220694605F0EAFD26
:106AD0009DF80000410001EBC001618004F1080055
